:100000000C942A000C9447000C9447000C94470071
:100010000C943F100C94FB0F0C9447000C94470079
:100020000C9447000C9447000C94B1100C94E6100B
:100030000C9447000C9447000C9447000C94470024
:100040000C9447000C9447000C9447000C94470014
:100050000C94470011241FBECFE5D8E0DEBFCDBF12
:1000600016E0A0E6B0E0ECE3FEE302C005900D92DE
:10007000A031B107D9F716E0A0E1B6E001C01D92AA
:10008000AC32B107E1F70E947F1E0C941C1F0C9448
:100090000000EF92FF920F931F937B018C0120E0F1
:1000A00030E040E05FE40E94C50388238CF0C80183
:1000B000B70120E030E040E05FE40E94C1010E940F
:1000C00025049B01AC01205030404040504806C000
:1000D000C801B7010E9425049B01AC01B901CA0106
:1000E0001F910F91FF90EF900895A0E0B0E0EBE733
:1000F000F0E00C94E51EDC012B01FA019C9192309A
:1001000008F439C1EB018881823008F433C194309E
:1001100069F4843009F02FC111969C91119789815F
:10012000981709F428C1A5EFB4E025C1843009F47B
:1001300021C18230A9F4923009F01DC19A01AD01AC
:1001400088E0EA010990AE01E90109929E0181501F
:10015000C1F7E201898111969C918923818308C1AD
:10016000923009F407C112962D903C901397EB0141
:100170008A819B811496AD90BD90CD90DC901797AD
:10018000EC80FD800E811F819101281B390BB90184
:1001900037FF04C066277727621B730B6032710537
:1001A0000CF061C0121613066CF537014801062EDB
:1001B00004C096948794779467940A94D2F721E0C8
:1001C00030E040E050E004C0220F331F441F551FB1
:1001D0006A95D2F721503040404050402E213F21B7
:1001E00040235123211531054105510521F021E01E
:1001F00030E040E050E079018A01E628F72808293C
:1002000019293CC0232BD1F1260E371E350146019A
:10021000062E04C096948794779467940A94D2F734
:1002200021E030E040E050E004C0220F331F441FC3
:10023000551F6A95D2F721503040404050402A2146
:100240003B214C215D21211531054105510521F04E
:1002500021E030E040E050E059016A01A628B728CB
:10026000C828D9280BC0821593052CF01C01AA249C
:10027000BB24650103C0EE24FF24870111969C91E5
:10028000D20111968C91981709F445C0992339F041
:10029000A80197012A193B094C095D0906C0A6016E
:1002A00095012E193F09400B510B57FD08C01182D3
:1002B0003382228224833583468357831DC081E0A5
:1002C00081833382228288279927DC01821B930B4A
:1002D000A40BB50B84839583A683B7830DC0220F2F
:1002E000331F441F551F24833583468357838281E0
:1002F000938101979383828324813581468157813D
:10030000DA01C9010197A109B1098F5F9F4FAF4F72
:10031000BF4328F30BC0918333822282EA0CFB1C7B
:100320000C1D1D1DE482F5820683178383E0808304
:10033000248135814681578157FF1AC0C901AA27F8
:1003400097FDA095BA2F81709070A070B0705695EF
:10035000479537952795822B932BA42BB52B848318
:100360009583A683B7838281938101969383828349
:10037000DF0101C0D201CD01CDB7DEB7E2E10C94BF
:10038000011FA0E2B0E0E7ECF1E00C94F11E6983FC
:100390007A838B839C832D833E834F835887E9E048
:1003A000EE2EF12CEC0EFD1ECE010196B7010E943F
:1003B00016068E010F5E1F4FCE010596B8010E94F2
:1003C00016068A8991E089278A8BC701B801AE0198
:1003D000475E5F4F0E9475000E944105A096E6E0CF
:1003E0000C940D1FA0E2B0E0E8EFF1E00C94F11ED8
:1003F00069837A838B839C832D833E834F835887C5
:10040000F9E0EF2EF12CEC0EFD1ECE010196B701A6
:100410000E9416068E010F5E1F4FCE010596B80191
:100420000E941606C701B801AE01475E5F4F0E94E9
:1004300075000E944105A096E6E00C940D1FA0E215
:10044000B0E0E5E2F2E00C94E51E69837A838B83E9
:100450009C832D833E834F835887CE010196BE0136
:10046000675F7F4F0E941606CE010596BE016F5E44
:100470007F4F0E9416069985923088F089898230D4
:10048000C8F0943019F4823051F404C0843029F457
:10049000923081F485EF94E0C6C0923049F420E0B8
:1004A0009A858A89981321E02A87CE010996BBC0D4
:1004B000823049F420E09A858A89981321E02A8BBA
:1004C000CE014196B0C02D843E844F8458886D88FB
:1004D0007E888F88988CEE24FF248701AA24BB2471
:1004E000650140E050E060E070E0E0E0F0E0C10174
:1004F00081709070892BE9F0E60CF71C081D191D1E
:100500009A01AB012A0D3B1D4C1D5D1D80E090E062
:10051000A0E0B0E0E614F7040805190520F481E036
:1005200090E0A0E0B0E0BA01A901480F591F6A1F8E
:100530007B1FAA0CBB1CCC1CDD1C97FE08C081E0F5
:1005400090E0A0E0B0E0A82AB92ACA2ADB2A3196B6
:10055000E032F10549F0660C771C881C991C569412
:10056000479437942794C3CFFA85EA892B893C892D
:100570008B859C85280F391F2E5F3F4F17C0CA01FE
:1005800081709070892B61F016950795F794E79428
:1005900080E090E0A0E0B0E8E82AF92A0A2B1B2BC3
:1005A00076956795579547952F5F3F4F77FDE7CF36
:1005B0000CC0440F551F661F771F17FD4160EE0CDE
:1005C000FF1C001F111F21503040403090E05907A0
:1005D00090E0690790E4790760F32B8F3C8FDB0193
:1005E000CA018F779070A070B07080349105A1051A
:1005F000B10561F447FD0AC0E114F10401051105DC
:1006000029F0405C5F4F6F4F7F4F40781A8EFE1786
:1006100011F081E08A8F4D8F5E8F6F8F78A383E01A
:10062000898FCE0149960E944105A096E2E10C9483
:10063000011FA8E1B0E0EFE1F3E00C94ED1E698347
:100640007A838B839C832D833E834F835887B9E0C5
:10065000EB2EF12CEC0EFD1ECE010196B7010E948F
:1006600016068E010F5E1F4FCE010596B8010E943F
:1006700016062985223008F47EC03989323010F4FC
:10068000B8017CC08A859A8989278A87243011F02D
:10069000223031F4231709F06EC065EF74E06EC0AC
:1006A000343039F41D861E861F86188A1C861B86E8
:1006B00004C0323021F484E08987B7015FC02B8504
:1006C0003C858B899C89281B390B3C872B87ED84C3
:1006D000FE840F851889AD88BE88CF88D88CEA142F
:1006E000FB040C051D0540F4EE0CFF1C001F111F40
:1006F000215030403C872B8720E030E040E050E044
:1007000080E090E0A0E0B0E460E070E0EA14FB0478
:100710000C051D0540F0282B392B4A2B5B2BEA18C2
:10072000FB080C091D09B695A79597958795EE0CC2
:10073000FF1C001F111F6F5F7F4F6F31710531F775
:10074000DA01C9018F779070A070B0708034910584
:10075000A105B10561F427FD0AC0E114F10401050A
:10076000110529F0205C3F4F4F4F5F4F20782D87B8
:100770003E874F87588BBE01675F7F4FCB010E943A
:1007800041056896EAE00C94091FA8E1B0E0EBECA3
:10079000F3E00C94F11E69837A838B839C832D8311
:1007A0003E834F83588789E0E82EF12CEC0EFD1E26
:1007B000CE010196B7010E9416068E010F5E1F4FF3
:1007C000CE010596B8010E9416068985823040F058
:1007D0008989823028F0C701B8010E948E0601C0C5
:1007E0008FEF6896E6E00C940D1FA8E1B0E0EBEF08
:1007F000F3E00C94F11E69837A838B839C832D83B1
:100800003E834F83588789E0E82EF12CEC0EFD1EC5
:10081000CE010196B7010E9416068E010F5E1F4F92
:10082000CE010596B8010E9416068985823040F0F7
:100830008989823028F0C701B8010E948E0601C064
:1008400081E06896E6E00C940D1FACE0B0E0EBE2CE
:10085000F4E00C94F51E69837A838B839C83CE012C
:100860000196BE016B5F7F4F0E9416068D8182301C
:1008700061F1823050F1843021F48E81882351F16E
:100880002EC02F81388537FD20C06E812F31310574
:100890001CF06623F9F023C08EE190E0821B930BDD
:1008A00029853A854B855C8504C0569547953795D3
:1008B00027958A95D2F76623B1F0509540953095EB
:1008C00021953F4F4F4F5F4F0EC020E030E040E09A
:1008D00050E009C02FEF3FEF4FEF5FE704C020E08B
:1008E00030E040E050E8B901CA012C96E2E00C94F7
:1008F000111FA8E0B0E0EFE7F4E00C94ED1E7B01DF
:100900008C01611571058105910519F482E08983D7
:1009100060C083E089838EE1C82ED12CDC82CB823B
:10092000ED82FE820F831887C801B7010E94F2048E
:10093000FC013197F7FF3BC0222733272E1B3F0BCB
:1009400057016801022E04C0D694C794B794A794A7
:100950000A94D2F740E050E060E070E081E090E07F
:10096000A0E0B0E004C0880F991FAA1FBB1F2A9502
:10097000D2F70197A109B1098E219F21A023B123AC
:100980000097A105B10521F041E050E060E070E082
:100990004A295B296C297D294D835E836F83788783
:1009A0008EE190E08E1B9F0B9C838B8312C030974F
:1009B00081F00E2E04C0EE0CFF1C001F111F0A94C4
:1009C000D2F7ED82FE820F831887CE1ADF0ADC820F
:1009D000CB821A82CE0101960E9441052896EAE058
:1009E0000C94091FEF92FF920F931F937B018C01D0
:1009F00080E0E81680E0F80681E0080780E018074C
:100A000088F48FEFE816F1040105110531F028F0A4
:100A100088E090E0A0E0B0E017C080E090E0A0E0C7
:100A2000B0E012C080E0E81680E0F80680E0080739
:100A300081E0180728F088E190E0A0E0B0E004C071
:100A400080E190E0A0E0B0E020E230E040E050E063
:100A5000281B390B4A0B5B0B04C016950795F794BE
:100A6000E7948A95D2F7F701E350FB4F8081281B6A
:100A7000310941095109C9011F910F91FF90EF9070
:100A80000895DF92EF92FF920F931F93FC01E48091
:100A9000F58006811781D1808081823048F480E022
:100AA00090E0A0E1B0E0E82AF92A0A2B1B2BA5C0B0
:100AB000843009F49FC0823021F4EE24FF248701A2
:100AC00005C0E114F1040105110519F4E0E0F0E0BE
:100AD00096C0628173819FEF623879070CF05BC02A
:100AE00022E83FEF261B370B2A3131052CF020E09E
:100AF00030E040E050E02AC0B801A701022E04C057
:100B000076956795579547950A94D2F781E090E0DE
:100B1000A0E0B0E004C0880F991FAA1FBB1F2A9550
:100B2000D2F70197A109B1098E219F21A023B123FA
:100B30000097A105B10521F081E090E0A0E0B0E0D0
:100B40009A01AB01282B392B4A2B5B2BDA01C90107
:100B50008F779070A070B07080349105A105B105B9
:100B600039F427FF09C0205C3F4F4F4F5F4F04C04F
:100B7000215C3F4F4F4F5F4FE0E0F0E02030A0E0BE
:100B80003A07A0E04A07A0E45A0710F0E1E0F0E0DD
:100B900079018A0127C06038710564F5FB01E158CD
:100BA000FF4FD801C7018F779070A070B07080346C
:100BB0009105A105B10539F4E7FE0DC080E490E090
:100BC000A0E0B0E004C08FE390E0A0E0B0E0E80E69
:100BD000F91E0A1F1B1F17FF05C016950795F794EE
:100BE000E794319687E016950795F794E7948A95F0
:100BF000D1F705C0EE24FF248701EFEFF0E06E2F60
:100C0000679566276795902F9F77D794DD24D794B3
:100C10008E2F8695492F462B582F5D29B701CA0183
:100C20001F910F91FF90EF90DF900895FC01DB0181
:100C3000408151812281622F6F7770E0221F22272D
:100C4000221F9381892F880F822B282F30E0991F34
:100C50009927991F11969C93119721153105A9F594
:100C6000411551056105710511F482E037C082E834
:100C70009FEF13969C938E9312979A01AB0167E0B6
:100C8000220F331F441F551F6A95D1F783E08C93C1
:100C90000DC0220F331F441F551F12968D919C913A
:100CA0001397019713969C938E931297203080E0B0
:100CB000380780E0480780E4580758F314962D93CE
:100CC0003D934D935C93179708952F3F310579F429
:100CD000411551056105710519F484E08C9308955F
:100CE00064FF03C081E08C9312C01C9210C02F5788
:100CF000304013963C932E93129783E08C9387E0B9
:100D0000440F551F661F771F8A95D1F7706414969C
:100D10004D935D936D937C93179708951F93DC011A
:100D2000FB019C91923008F447C08081823008F426
:100D300043C0943051F411961C91843099F581810F
:100D4000682F70E0611B71093FC0843021F0923040
:100D500031F48230B9F18181882389F12DC0119657
:100D60001C9111978230F1F081811817D9F41296F5
:100D70002D913C911397828193818217930794F070
:100D800028173907BCF014968D919D910D90BC9158
:100D9000A02D2481358146815781281739074A07BC
:100DA0005B0718F4112341F00AC082179307A407C8
:100DB000B50740F4112319F061E070E005C06FEF52
:100DC0007FEF02C060E070E0CB011F9108950F93A8
:100DD0001F93DF93CF930F92CDB7DEB70E944C19CC
:100DE00080E690E00E94DD1882E060E00E94281911
:100DF00080E790E00E94DD1880E395E720E931E08C
:100E0000F9013197F1F70197D9F70E944C198AE758
:100E100090E00E94DD1882E060E00E9428198AE8D4
:100E200090E00E94DD188E010F5F1F4FC8010E94E5
:100E3000B81989818F3FD1F3823369F0833318F475
:100E4000813349F505C0833359F0843321F50DC052
:100E50000E945B1539C00E94151D0E94BA1C34C047
:100E60000E94511E0E94AC1D2FC0109211061092BC
:100E700010060E944C1988E990E00E94DD1880E37A
:100E800095E720E931E0F9013197F1F70197D9F7BA
:100E90000E9441081BC00E944C1984EA90E00E9405
:100EA000DD1882E060E00E94281981EB90E00E944A
:100EB000DD1888E99AE320E931E0F9013197F1F78B
:100EC0000197D9F70E944C190E94E7060F90CF9125
:100ED000DF911F910F9108954F925F926F927F92D1
:100EE0008F929F92AF92BF92CF92DF92FF920F9319
:100EF0001F93DF93CF93CDB7DEB72A970FB6F89441
:100F0000DEBF0FBECDBF833049F08430B1F08230F8
:100F100019F47EE0F72E04C0FF2402C068E1F62E2B
:100F20008E010F5F1F4F50E4A52E5CE9B52E46E001
:100F3000C42ED12CCC0EDD1E03C032E2F32EF0CF36
:100F40008F2D90E0B8010E94C31AC5010197F1F7F7
:100F5000F3940F5F1F4F0C151D0591F7DD24FF243F
:100F600026E0A22EB12CAC0EBD1E9BE0492E512CCA
:100F70004C0E5D1E3E010894611C711C80E9882E98
:100F800081E0982E0E944C1984EC90E00E94DD18BC
:100F900082E060E00E9428198501C8010E94B8190A
:100FA000F80180818F3FC9F38AE20E943B180F5FEE
:100FB0001F4F0415150589F720E030E0F501E20F19
:100FC000F31FD301A20FB31F90818C91981731F4B6
:100FD000D3942F5F3F4F2530310581F7F5E0DF16C1
:100FE000D1F40E944C198FEC90E00E94DD1880E350
:100FF00095E720E931E0F9013197F1F70197D9F749
:101000000E944C1981E0809311060E94E70682E05D
:101010008F1508F51CC0F3940E944C19E3E0FE16EE
:10102000B1F08DED90E00E94DD1882E060E00E945A
:1010300028198CEE90E00E94DD1880E395E7F4011A
:101040003197F1F70197D9F70E944C199BCF0E9475
:10105000391D0E941F1D2A960FB6F894DEBF0FBEE1
:10106000CDBFCF91DF911F910F91FF90DF90CF9077
:10107000BF90AF909F908F907F906F905F904F90B8
:1010800008958F929F92AF92BF92CF92DF92EF928C
:10109000FF920F931F93DF93CF93CDB7DEB7A09747
:1010A0000FB6F894DEBF0FBECDBF1E821F8280E058
:1010B00090E0BE016A5F7F4F0E94C31A80E49CE902
:1010C0000197F1F78E81813089F187EF90E00E94DE
:1010D000060E85E091E00E94060E04E010E0F7E0C5
:1010E000CF2ED12CCC0EDD1EE0E4EE2EECE9FE2E50
:1010F000C6010E94170E8F818823D1F38AE20E94D5
:101100003B18C8016F810E94E91AC7010197F1F7E6
:101110000F5F1F4F0930110559F780E090E061E043
:101120000E94E91A87E191E00E94060E19821A8254
:101130001B821C820E944C198EE291E00E94DD18F5
:1011400082E060E00E9428198BE391E00E94DD18A4
:101150008E010B5F1F4FC8010E94B8198D818F3F10
:10116000D1F30E944C1989E491E00E94DD1882E0DD
:1011700060E00E94281985E591E00E94DD1880E377
:1011800095E720E931E0F9013197F1F70197D9F7B7
:101190000E944C1980E090E0BE016F5F7F4F0E947B
:1011A000C31A00E41CE9C8010197F1F781E090E05F
:1011B000BE016E5F7F4F0E94C31AC8010197F1F70D
:1011C0008A818130D1F400E010E078E0C72ED12C84
:1011D000CC0EDD1E60E4E62E6CE9F62EB601600F43
:1011E000711FC80109960E94C31AC7010197F1F740
:1011F0000F5F1F4F0530110589F782E090E0BE01B7
:101200006D5F7F4F0E94C31A80E49CE90197F1F75C
:101210008B818130D1F400E010E05DE0C52ED12C4F
:10122000CC0EDD1E40E4E42E4CE9F42EB601600F36
:10123000711FC80143960E94C31AC7010197F1F7B5
:101240000F5F1F4F0530110589F783E090E0BE0165
:101250006C5F7F4F0E94C31A80E49CE90197F1F70D
:101260008C818130D1F400E010E032E1C32ED12C2A
:10127000CC0EDD1E20E4E22E2CE9F22EB601600F2A
:10128000711FC8014D960E94C31AC7010197F1F75B
:101290000F5F1F4F0530110589F795E0E92EF12CFE
:1012A000EC0EFD1E00E911E08981813021F48EE50C
:1012B00091E00E94DD188A81813099F486E691E000
:1012C0000E94DD1888850E943B1889850E943B1882
:1012D0008A850E943B188B850E943B188C850E9452
:1012E0003B1882E060E00E9428198B81813099F4DC
:1012F0008AE691E00E94DD188D850E943B188E855C
:101300000E943B188F850E943B1888890E943B18D9
:1013100089890E943B188C81813099F48DE691E097
:101320000E94DD188A890E943B188B890E943B1815
:101330008C890E943B188D890E943B188E890E94DF
:101340003B18C7010E94B8198D818F3FD1F38233BA
:1013500009F47EC0833320F4813309F09CC007C0B8
:10136000833309F47AC0843309F095C07BC000E070
:1013700010E087E1C82ED12CCC0EDD1EB0E4EB2EA0
:10138000BCE9FB2EB601600F711FC80104960E94D4
:10139000C31AC7010197F1F70F5F1F4F0530110501
:1013A00089F7FF24EE24ACE1CA2ED12CCC0EDD1E31
:1013B000F1E28F2E912C8C0E9D1EE7E1AE2EB12C0A
:1013C000AC0EBD1E84EC90E00E94060E8601C801A2
:1013D0000E94170EF80180818823C9F30F5F1F4F09
:1013E00008151905A1F720E030E0F601E20FF31F20
:1013F000D501A20FB31F90818C91981731F4E3941B
:101400002F5F3F4F2530310581F7F5E0EF1669F486
:101410008FEC90E00E94060E81E0809311060E94FE
:10142000630A82E08F1590F40DC0F394E3E0FE169A
:1014300049F08DED90E00E94060E8CEE90E00E9447
:10144000DD18C0CF0E94391D0E941F1D81E00EC013
:1014500082E00E946C0782E009C083E00E946C0772
:1014600083E004C084E00E946C0784E0809310064F
:10147000A0960FB6F894DEBF0FBECDBFCF91DF911F
:101480001F910F91FF90EF90DF90CF90BF90AF90A2
:101490009F908F9008950E944C1981E791E00E94DF
:1014A000DD1882E060E00E9428198FE791E00E9439
:1014B000DD1880E395E7F8013197F1F70197D9F747
:1014C0000E944C19F1CEAF92BF92CF92DF92EF9271
:1014D000FF920F931F93DF93CF9300D000D00F9212
:1014E000CDB7DEB78AE891E00E94060E81EA91E06E
:1014F0000E94060E88EA91E00E94060E81EB91E0C0
:101500000E94060E86EB91E00E94060E8DEB91E0A4
:101510000E94060E8BEC91E00E94060E89ED91E090
:101520000E94060E8BEE91E00E94060E0E94FD0DB9
:101530008E010F5F1F4FC8010E94170E89818823FB
:10154000D1F3843319F1853340F48233A9F0833326
:10155000C0F4813309F0EBC20CC0863309F4B8C083
:101560008633B8F0873309F4C6C1883309F0DFC287
:10157000C4C20E942914BCC20E94151D0E946D1C89
:10158000B7C20E94511E0E94FD1DB2C20E941E1CC5
:10159000AFC20E944C191B821C821D8281E090E028
:1015A000BE016D5F7F4F0E94C31A00E41CE9C801B1
:1015B0000197F1F782E090E0BE016C5F7F4F0E94DF
:1015C000C31AC8010197F1F783E090E0BE016B5F99
:1015D0007F4F0E94C31AC8010197F1F78B818130B8
:1015E00029F00EE0FF24F39419E010C08C818130C3
:1015F00029F008E162E0F62E13E108C08D81813008
:1016000009F4A0C202E253E0F52E1DE184EF91E05F
:101610000E94060E42E0A42EB12CAC0EBD1E30E49A
:10162000C32E3CE9D32E24E0E22EE10EC5010E9438
:10163000170E6A816623D1F3812F90E00E94E91A88
:10164000C6010197F1F71E1511F01F5FEFCF0E9441
:101650004C1982E092E00E94060E102F92E0A92E13
:10166000B12CAC0EBD1E80E4C82E8CE9D82E0C5FC8
:10167000C5010E94170E6A816623D1F3812F90E085
:101680000E94E91AC6010197F1F7101711F01F5FC8
:10169000EFCF8F2D90E061E00E94E91A80E49CE991
:1016A0000197F1F70E944C1980E192E00E94DD1849
:1016B00080E192E00E94060E80E395E720E931E0A8
:1016C000F9013197F1F70197D9F70E944C1910C22F
:1016D0001D821C821B828DE192E00E94060E81E039
:1016E00090E0BE016B5F7F4F0E94C31A80E49CE9CB
:1016F0000197F1F78D81813001F581E30E94D10DD1
:101700008DE20E94D10D09E010E0B2E0CB2ED12C89
:10171000CC0EDD1EA0E4EA2EACE9FA2EC801B6011B
:101720000E94C31AC7010197F1F78A810E94D10D67
:101730000F5F1F4F0E30110589F782E090E0BE0168
:101740006C5F7F4F0E94C31A80E49CE90197F1F718
:101750008C81813001F582E30E94D10D8DE20E94DF
:10176000D10D03E110E0F2E0CF2ED12CCC0EDD1E26
:10177000E0E4EE2EECE9FE2EC801B6010E94C31A89
:10178000C7010197F1F78A810E94D10D0F5F1F4FAA
:101790000831110589F783E090E0BE016D5F7F4F4E
:1017A0000E94C31A80E49CE90197F1F78B81813094
:1017B00001F583E30E94D10D8DE20E94D10D0DE170
:1017C00010E072E0C72ED12CCC0EDD1E60E4E62EB8
:1017D0006CE9F62EC801B6010E94C31AC701019731
:1017E000F1F78A810E94D10D0F5F1F4F0232110560
:1017F00089F78D818130A1F08C81813089F08B81D6
:10180000813071F083E392E00E94060E80E395E759
:1018100020E931E0F9013197F1F70197D9F768C173
:101820000E94FD0D8E010E5F1F4FC8010E94170E12
:101830008A818823D1F38233F1F08333A9F1813394
:1018400009F04BC081E090E060E00E94E91A0E943C
:101850004C1982E492E00E94DD1882E492E00E943A
:10186000060E80E29EE420E931E0F9013197F1F7BC
:101870000197D9F73DC182E090E060E00E94E91A4B
:101880000E944C1982E492E00E94DD1882E492E00A
:101890000E94060E80E29EE420E931E0F9013197D2
:1018A000F1F70197D9F724C183E090E060E00E944E
:1018B000E91A0E944C1982E492E00E94DD1882E449
:1018C00092E00E94060E80E29EE420E931E0F901F8
:1018D0003197F1F70197D9F70BC181E791E00E94A9
:1018E000060E80E395E720E931E0F9013197F1F741
:1018F0000197D9F7FDC01A821B821C828FE492E007
:101900000E94060E8EE692E00E94060E81E090E0B4
:10191000BE016E5F7F4F0E94C31A80E49CE901976D
:10192000F1F78A81813011F582E30E94D10D8DE2B9
:101930000E94D10D09E010E055E0C52ED12CCC0E4F
:10194000DD1E40E4E42E4CE9F42EC801B6010E94ED
:10195000C31AC7010197F1F78D810E94D10D0F5F66
:101960001F4F0E30110589F70E94FD0D82E090E0B7
:10197000BE016D5F7F4F0E94C31A80E49CE901970E
:10198000F1F78B81813011F583E30E94D10D8DE257
:101990000E94D10D03E110E035E0C32ED12CCC0E16
:1019A000DD1E20E4E22E2CE9F22EC801B6010E94D1
:1019B000C31AC7010197F1F78D810E94D10D0F5F06
:1019C0001F4F0831110589F70E94FD0D83E090E05B
:1019D000BE016C5F7F4F0E94C31A80E49CE90197AF
:1019E000F1F78C81813011F01DE123C084E30E9466
:1019F000D10D8DE20E94D10D0DE110E095E0C92ED0
:101A0000D12CCC0EDD1E80E4E82E8CE9F82EC80126
:101A1000B6010E94C31AC7010197F1F78D810E9498
:101A2000D10D0F5F1F4F0232110589F70E94FD0D86
:101A300012E205E0E02EF12CEC0EFD1EC7010E9423
:101A4000170E8D818823D1F3823351F0833318F43C
:101A5000813371F407C0833339F0843349F406C00D
:101A60001EE013C014E011C018E10FC012E20DC057
:101A700081E791E00E94060E80E395E720E931E0DE
:101A8000F9013197F1F70197D9F787E792E00E94C2
:101A9000060EB5E0CB2ED12CCC0EDD1EA0E4EA2E36
:101AA000ACE9FA2E012F0C5FC6010E94170E6D8162
:101AB0006623D1F3812F90E00E94E91AC7010197B4
:101AC000F1F7101711F01F5FEFCF0E944C1985E856
:101AD00092E00E94DD1885E892E00E94060E80E206
:101AE0009EE420E931E0F9013197F1F70197D9F748
:101AF0000E94FD0D0E94FD0D22C010921106109251
:101B000010060E944C1988E990E00E94DD1888E9CF
:101B100090E00E94060E80E395E720E931E0F901AC
:101B20003197F1F70197D9F70E94410810C084EA74
:101B300090E00E94060E81EB90E00E94060E0E944B
:101B4000630A05C086E992E00E94060ED1CF0F908D
:101B50000F900F900F900F90CF91DF911F910F91E9
:101B6000FF90EF90DF90CF90BF90AF9008950E94CC
:101B700074170E94511E0E94151D0E94391D0E945B
:101B800054190E94801A0E94C80D0E94051B0895D6
:101B9000599887E689B9529886E880BD539A549A35
:101BA00008958CB95D9BFECF0895382F882329F4C2
:101BB00080E38CB95D9BFECF089521E04AE0249F2D
:101BC000202D1124832F6AE00E94A31E290F832F4A
:101BD0000E94A31E382F882391F7822F6AE00E946B
:101BE000A31E905D9CB95D9BFECF822F6AE00E9490
:101BF000A31E282F813089F708958DE08CB95D9B55
:101C0000FECF8AE08CB95D9BFECF0895009771F0FE
:101C100020E004C0ECB95D9BFECF2F5FFC01E20F1A
:101C2000F11DE081EE23B1F70E94FD0D0895FC0146
:101C3000009721F05F9BFECF8CB1808308958CE0EC
:101C400080B90898099886B7846086BF089586B7DA
:101C5000806286BF86B7806886BF06B607FEFDCF66
:101C600081B1887F8830E1F7089586B7806286BFAA
:101C700086B7806886BF06B607FEFDCF81B1887F34
:101C80008031E1F7089586B7806186BF86B78068A6
:101C900086BF089587FD10C0880F83B9189886B74E
:101CA0008F7D86BF86B7806886BF06B607FEFDCFEC
:101CB00081B1887F8831E1F7089587FD10C0880FD2
:101CC00083B9189A86B78F7D86BF86B7806886BF2E
:101CD00006B607FEFDCF81B1887F8034E1F7089515
:101CE00083B986B7806886BF06B607FEFDCF81B18F
:101CF000887F8832E1F70895FC01009791F086B75C
:101D0000806486BF86B7806886BF06B607FEFDCFB3
:101D100081B1887F8035E1F783B1808386B78F7B7F
:101D200086BF0895FC01009761F086B7806886BF82
:101D300006B607FEFDCF81B1887F8835E1F783B114
:101D40008083089506B606FEFDCF089560931F06B2
:101D5000813089F0813028F08230A1F0833021F584
:101D60001DC085B58F7B85BD85B5877F85BD89B74E
:101D7000806489BF089585B5806485BD85B5877FFA
:101D800085BD089585B58F7B85BD85B5886085BD8A
:101D900089B7806889BF89EF83BD089585B5806460
:101DA00085BD85B5886085BD089585B5887F85BD6D
:101DB00085B590911F06892B85BD089589B78F7BC6
:101DC00089BF89B78F7789BF85B5887F85BD08951D
:101DD000AF92BF92CF92DF92EF92FF920F931F9339
:101DE00020911F06222309F4A9C0009709F4A6C078
:101DF0002430E9F1253038F4223019F1233060F530
:101E00002130A1F408C0263009F447C02630D0F1B3
:101E1000273061F44DC00F2EF0E0EF2EF0E0FF2EE2
:101E2000FAE70F2FF6E41F2FF02D4CC00F2EF0E035
:101E3000EF2EF0E0FF2EF0E00F2FF0E01F2FF02D3F
:101E400041C00F2EF0E0EF2EF0E0FF2EFAEF0F2F43
:101E5000F4E41F2FF02D36C00F2EF0E0EF2EF0E04F
:101E6000FF2EFAEF0F2FF3E41F2FF02D2BC00F2EB4
:101E7000F0E0EF2EF0E0FF2EFAE70F2FF3E41F2F34
:101E8000F02D20C00F2EF0E0EF2EF0E0FF2EFAEF45
:101E90000F2FF2E41F2FF02D15C00F2EF0E0EF2EC4
:101EA000F0E0FF2EF8E70F2FF2E41F2FF02D0AC00D
:101EB0000F2EF0E0EF2EF0E0FF2EF0E70F2FF1E411
:101EC0001F2FF02DBC0180E090E00E947904A80152
:101ED00097010E941F0220E030E040E85BE30E948F
:101EE0001F025B016C010E9449007B018C0160E0D4
:101EF00070E080E89FE3A60195010E94C1015B01AB
:101F00006C01B70180E090E00E9479049B01AC0174
:101F1000C601B5010E94F20120E030E040E853E440
:101F20000E941F020E94490060931C060894E11C55
:101F3000F11CF0921B06E0921A0664BD1F910F91EE
:101F4000FF90EF90DF90CF90BF90AF9008959C01ED
:101F500080911F068330D9F0843028F4813089F0D5
:101F6000823090F409C08530C1F0853098F0863019
:101F7000B9F08730F1F417C01092150610921406CC
:101F800018C080E89EE311C080ED97E00EC084EF9A
:101F900091E00BC08AEF90E008C08DE790E005C0AB
:101FA0008EE390E002C08FE090E09093150680935E
:101FB000140680911406909115066AEF70E00E9455
:101FC000AF1E269FC001279F900D369F900D1124B4
:101FD00090931506809314060895009721F090932E
:101FE0001906809318060895009721F09093130620
:101FF0008093120608951F920F920FB60F9211242C
:102000002F933F934F935F936F937F938F939F9300
:10201000AF93BF93EF93FF93E0911806F0911906E9
:10202000309749F080911D0690911E06019690937D
:102030001E0680931D0620911D0630911E0680917C
:102040001A0690911B062817390741F480911C0647
:1020500084BD10921E0610921D060995FF91EF9106
:10206000BF91AF919F918F917F916F915F914F91B0
:102070003F912F910F900FBE0F901F9018951F92B8
:102080000F920FB60F9211242F933F934F935F93AC
:102090006F937F938F939F93AF93BF93EF93FF9330
:1020A000E0911206F0911306309749F080911606E0
:1020B000909117060196909317068093160620912B
:1020C0001606309117068091140690911506281770
:1020D000390729F410921706109216060995FF91F8
:1020E000EF91BF91AF919F918F917F916F915F9190
:1020F0004F913F912F910F900FBE0F901F90189509
:1021000083B78F7B83BF83B7877F83BF89B78160A6
:1021100089BF8AE082BF089583B7816083BF83B798
:10212000826083BF83B78B7F83BF089583B78E7F21
:1021300083BF83B78D7F83BF83B78B7F83BF0895B2
:1021400089EF8CBF0895009721F09093210680932A
:1021500020060895009721F0909325068093240689
:1021600008951F920F920FB60F9211242F933F9351
:102170004F935F936F937F938F939F93AF93BF938F
:10218000EF93FF938091280690912906909327065C
:1021900080932606892B49F0109227061092260676
:1021A000E0912406F09125060995FF91EF91BF91EA
:1021B000AF919F918F917F916F915F914F913F91DF
:1021C0002F910F900FBE0F901F9018951F920F9296
:1021D0000FB60F9211242F933F934F935F936F93FA
:1021E0007F938F939F93AF93BF93EF93FF938091D0
:1021F000220690912306019690932306809322064F
:102200000A9759F48AE082BF1092230610922206A0
:10221000E0912006F09121060995FF91EF91BF9181
:10222000AF919F918F917F916F915F914F913F916E
:102230002F910F900FBE0F901F90189583B7806459
:1022400083BF83B7886083BF83B78F7E83BF83B725
:10225000806283BF0895853658F48FEF8CBF83B7B3
:10226000816083BF83B7826083BF83B78B7F83BF67
:1022700008958FB58E7F8FBD8FB582608FBD8EB56F
:1022800088608EBD8EB580618EBD8FB58F7B8FBD12
:102290008FB580688FBD0895EF92FF920F931F93C3
:1022A000CF93DF93EC017A018B01CB01BA0120E0DF
:1022B00030E048EC52E40E94F5031816A4F19E01A8
:1022C00040E050E060E970ED83E090E00E94C31EC2
:1022D0002150304037BD26BD66B577B56F5F7F4F63
:1022E00080E090E00E9479049B01AC01C801B70135
:1022F0000E941F0220E030E048EC52E40E941903E3
:1023000020E030E040E85FE30E94C1010E94490004
:102310007BBD6ABD8EB581608EBD8EB582608EBD7F
:102320008EB58B7F8EBDDF91CF911F910F91FF9066
:10233000EF9008958FB780688FBF08958FB78F771C
:102340008FBF0895843008F082C0683008F07FC0E5
:10235000423008F07CC0813031F1813038F0823079
:1023600009F43EC0833009F072C056C0442321F006
:10237000413009F06CC00CC02AB381E090E002C08B
:10238000880F991F6A95E2F7809582238ABB08958A
:102390002AB381E090E002C0880F991F6A95E2F7A6
:1023A000282B2ABB0895442321F0413009F04FC067
:1023B0000CC027B381E090E002C0880F991F6A9596
:1023C000E2F78095822387BB089527B381E090E0F0
:1023D00002C0880F991F6A95E2F7282B27BB089542
:1023E000442319F0413099F50CC024B381E090E00A
:1023F00002C0880F991F6A95E2F78095822384BBFB
:10240000089524B381E090E002C0880F991F6A9577
:10241000E2F7282B24BB0895442319F04130B9F486
:102420000CC021B381E090E002C0880F991F6A952B
:10243000E2F78095822381BB089521B381E090E08B
:1024400002C0880F991F6A95E2F7282B21BB0895D7
:10245000843008F082C0683008F07FC0423008F055
:102460007CC0813031F1813038F0823009F43EC0D7
:10247000833009F072C056C0442321F0413009F086
:102480006CC00CC02BB381E090E002C0880F991F94
:102490006A95E2F7809582238BBB08952BB381E088
:1024A00090E002C0880F991F6A95E2F7282B2BBB9A
:1024B0000895442321F0413009F04FC00CC028B3E7
:1024C00081E090E002C0880F991F6A95E2F780953D
:1024D000822388BB089528B381E090E002C0880F72
:1024E000991F6A95E2F7282B28BB0895442319F019
:1024F000413099F50CC025B381E090E002C0880F0F
:10250000991F6A95E2F78095822385BB089525B3CC
:1025100081E090E002C0880F991F6A95E2F7282BAE
:1025200025BB0895442319F04130B9F40CC022B3FF
:1025300081E090E002C0880F991F6A95E2F78095CC
:10254000822382BB089522B381E090E002C0880F0D
:10255000991F6A95E2F7282B22BB0895FA0184306F
:1025600028F5683018F54115510501F1813049F021
:10257000813028F0823039F08330C1F40EC089B345
:1025800003C086B301C083B390E002C095958795E0
:102590006A95E2F781708083089580B390E002C06D
:1025A000959587956A95E2F78170808308958430C8
:1025B000B0F56830A0F5813091F0813028F082309C
:1025C000C9F0833061F521C02BB381E090E002C0F7
:1025D000880F991F6A95E2F728272BBB089528B327
:1025E00081E090E002C0880F991F6A95E2F72827E2
:1025F00028BB089525B381E090E002C0880F991FA1
:102600006A95E2F7282725BB089522B381E090E080
:1026100002C0880F991F6A95E2F7282722BB089508
:102620008430B0F56830A0F5813091F0813028F029
:102630008230C9F0833061F521C02BB381E090E096
:1026400002C0880F991F6A95E2F7282B2BBB0895CB
:1026500028B381E090E002C0880F991F6A95E2F7E5
:10266000282B28BB089525B381E090E002C0880F95
:10267000991F6A95E2F7282B25BB089522B381E0C4
:1026800090E002C0880F991F6A95E2F7282B22BBC1
:102690000895843090F5623080F5813089F0813082
:1026A00028F08230B9F0833041F51EC0662319F05E
:1026B000613019F502C01ABA08958FEF8ABB0895E8
:1026C000662319F06130C9F402C017BA08958FEF7C
:1026D00087BB0895662319F0613079F402C014BAFB
:1026E00008958FEF84BB0895662319F0613029F4B3
:1026F00002C011BA08958FEF81BB0895843090F520
:10270000623080F5813089F0813028F08230B9F074
:10271000833041F51EC0662319F0613019F502C0FF
:102720001BBA08958FEF8BBB0895662319F06130B3
:10273000C9F402C018BA08958FEF88BB08956623C4
:1027400019F0613079F402C015BA08958FEF85BB96
:102750000895662319F0613029F402C012BA089571
:102760008FEF82BB0895FB018430A8F461157105D9
:1027700091F0813049F0813028F0823039F0833097
:1027800051F407C089B303C086B301C083B380830B
:10279000089580B3808308958430C0F4813059F067
:1027A000813028F0823059F0833081F40CC08BB333
:1027B00080958BBB089588B3809588BB089585B3B9
:1027C000809585BB089582B3809582BB089584303F
:1027D000A0F4813051F0813028F0823049F083300C
:1027E00061F409C08FEF8BBB08958FEF88BB08950C
:1027F0008FEF85BB08958FEF82BB0895823031F053
:10280000833039F0813039F43E9A01C03E983F98C8
:1028100002C03E9A3F9A3D983D983B98309A319A33
:10282000329A379A0895982FFB016115710581F04E
:10283000803270F487B1807E87B987B1892B87B9E0
:10284000369A349BFECF349A84B195B191838083BC
:1028500008950F931F93DF93CF9300D0CDB7DEB7CA
:1028600084EA92E00E94060E80EB92E00E94060E3F
:102870008E010F5F1F4FC8010E94170E89818823A8
:10288000D1F38133A1F50E944C198DEB92E00E94A7
:10289000060E88EC92E00E94060E8E010E5F1F4F1E
:1028A000C8010E94170E8A818823D1F3813371F405
:1028B00082E063E041E00E940A180E944C1989ED11
:1028C00092E00E94DD1889ED92E0ECC0823309F0BD
:1028D000E3C082E063E041E00E94FD170E944C19D2
:1028E00085EE92E00E94DD1885EE92E0DBC0823337
:1028F00091F582E193E00E94060E88EC92E00E943E
:10290000060E8E010E5F1F4FC8010E94170E8A81AE
:102910008823D1F3813371F482E064E041E00E94C6
:102920000A180E944C198DE193E00E94DD188DE198
:1029300093E0B8C0823309F0AFC082E064E041E0C8
:102940000E94FD170E944C1989E293E00E94DD1855
:1029500089E293E0A7C08333A1F50E944C1986E376
:1029600093E00E94060E88EC92E00E94060E8E0113
:102970000E5F1F4FC8010E94170E8A818823D1F372
:10298000813371F482E065E041E00E940A180E9400
:102990004C1981E493E00E94DD1881E493E082C049
:1029A000823309F079C082E065E041E00E94FD17C2
:1029B0000E944C198DE493E00E94DD188DE493E0B1
:1029C00071C08433A1F50E944C198AE593E00E94FE
:1029D000060E88EC92E00E94060E8E010E5F1F4FDD
:1029E000C8010E94170E8A818823D1F3813371F4C4
:1029F00082E066E041E00E940A180E944C1985E6D8
:102A000093E00E94DD1885E693E04CC0823309F024
:102A100043C082E066E041E00E94FD170E944C192D
:102A200081E793E00E94DD1881E793E03BC08533A6
:102A300099F50E944C198EE793E00E94060E88ECEF
:102A400092E00E94060E8E010E5F1F4FC8010E9489
:102A5000170E8A818823D1F3813371F482E067E015
:102A600041E00E940A180E944C1989E893E00E94F4
:102A7000DD1889E893E016C0823371F482E067E0E4
:102A800041E00E94FD170E944C1985E993E00E94E5
:102A9000DD1885E993E006C082EF92E00E94060E01
:102AA0008FEF92E00E94060E0F900F90CF91DF9172
:102AB0001F910F9108950F931F93DF93CF9300D031
:102AC000CDB7DEB70E944C1984EA92E00E94DD186F
:102AD00082E060E00E94281980EB92E00E94DD18FD
:102AE0008E010F5F1F4FC8010E94B81989818F3F67
:102AF000D1F3813309F05CC00E944C198DEB92E058
:102B00000E94DD1882E060E00E94281988EC92E0C3
:102B10000E94DD188E010E5F1F4FC8010E94B81978
:102B20008A818F3FD1F30E944C198A81813399F4B5
:102B300082E063E041E00E940A1889ED92E00E9481
:102B4000DD1880E395E720E931E0F9013197F1F7ED
:102B50000197D9F7C2C1823399F482E063E041E082
:102B60000E94FD1785EE92E00E94DD1880E395E754
:102B700020E931E0F9013197F1F70197D9F7ADC1BB
:102B80000E944C1982EF92E00E94DD1882E060E022
:102B90000E9428198FEF92E00E94DD1888E99AE3DD
:102BA00020E931E0F9013197F1F70197D9F793C1A5
:102BB000823309F05CC00E944C1982E193E00E94CC
:102BC000DD1882E060E00E94281988EC92E00E9403
:102BD000DD188E010E5F1F4FC8010E94B8198A814F
:102BE0008F3FD1F30E944C198A81813399F482E09E
:102BF00064E041E00E940A188DE193E00E94DD1834
:102C000080E395E720E931E0F9013197F1F7019789
:102C1000D9F763C1823399F482E064E041E00E9415
:102C2000FD1789E293E00E94DD1880E395E720E933
:102C300031E0F9013197F1F70197D9F74EC10E94C0
:102C40004C1982EF92E00E94DD1882E060E00E9461
:102C500028198FEF92E00E94DD1888E99AE320E9B5
:102C600031E0F9013197F1F70197D9F734C1833396
:102C700009F05CC00E944C1986E393E00E94DD18C5
:102C800082E060E00E94281988EC92E00E94DD1842
:102C90008E010E5F1F4FC8010E94B8198A818F3FB5
:102CA000D1F30E944C198A81813399F482E065E066
:102CB00041E00E940A1881E493E00E94DD1880E35D
:102CC00095E720E931E0F9013197F1F70197D9F75C
:102CD00004C1823399F482E065E041E00E94FD176F
:102CE0008DE493E00E94DD1880E395E720E931E070
:102CF000F9013197F1F70197D9F7EFC00E944C190C
:102D000082EF92E00E94DD1882E060E00E942819C4
:102D10008FEF92E00E94DD1888E99AE320E931E024
:102D2000F9013197F1F70197D9F7D5C0843309F04C
:102D30005CC00E944C198AE593E00E94DD1882E095
:102D400060E00E94281988EC92E00E94DD188E0154
:102D50000E5F1F4FC8010E94B8198A818F3FD1F3BF
:102D60000E944C198A81813399F482E066E041E047
:102D70000E940A1885E693E00E94DD1880E395E73B
:102D800020E931E0F9013197F1F70197D9F7A5C0B2
:102D9000823399F482E066E041E00E94FD1781E70A
:102DA00093E00E94DD1880E395E720E931E0F90126
:102DB0003197F1F70197D9F790C00E944C1982EF33
:102DC00092E00E94DD1882E060E00E9428198FEFF7
:102DD00092E00E94DD1888E99AE320E931E0F901E8
:102DE0003197F1F70197D9F776C0853309F05CC0C8
:102DF0000E944C198EE793E00E94DD1882E060E0AB
:102E00000E94281988EC92E00E94DD188E010E5F66
:102E10001F4FC8010E94B8198A818F3FD1F30E94C9
:102E20004C198A81813399F482E067E041E00E9485
:102E30000A1889E893E00E94DD1880E395E720E90D
:102E400031E0F9013197F1F70197D9F746C08233A4
:102E500099F482E067E041E00E94FD1785E993E084
:102E60000E94DD1880E395E720E931E0F901319710
:102E7000F1F70197D9F731C00E944C1982EF92E027
:102E80000E94DD1882E060E00E9428198FEF92E036
:102E90000E94DD1888E99AE320E931E0F9013197D1
:102EA000F1F70197D9F717C00E944C1982EF92E011
:102EB0000E94DD1882E060E00E9428198FEF92E006
:102EC0000E94DD1888E99AE320E931E0F9013197A1
:102ED000F1F70197D9F70E944C190F900F90CF91FD
:102EE000DF911F910F91089582E063E00E9417180F
:102EF00082E064E00E94171882E065E00E941718E3
:102F000082E066E00E94171882E067E00E941718CE
:102F1000089590E0A0E0B0E0BC01CD010E947904EA
:102F200020E030E040E152E40E94190320E030E06C
:102F300040EA50E40E94F201AB01BC0182E390E060
:102F40000E944C11089583E065E041E00E94A211C7
:102F50000E943911089582E062E040E00E94281248
:102F6000089582E062E041E00E942812089582E024
:102F700062E041E00E94A2110895EF92FF921F9338
:102F8000DF93CF9300D0CDB7DEB7182F7B0161154B
:102F9000710521F180E0612F40E00E94A211812F94
:102FA000BE016F5F7F4F0E94131469817A8180E0B8
:102FB00090E020E03AE040E050E00E94841EDC0116
:102FC000CB012AE0B695A795979587952A95D1F7D5
:102FD0006AE070E00E94AF1EF70160830F900F90CF
:102FE000CF91DF911F91FF90EF90089583E00E94B1
:102FF000FE1308950E94D7120895413019F042300F
:1030000041F404C040E00E942812089541E00E946B
:1030100028120895413019F0423041F404C041E0D3
:103020000E942812089540E00E942812089541E06D
:103030000E94A21108951F93182F482F417080E01D
:1030400064E00E942812412F4695417080E065E0BF
:103050000E94281216951695412F417080E066E077
:103060000E9428121695117080E067E0412F0E949F
:1030700028121F910895FF920F931F93F82E81E05D
:1030800065E041E00E94281281E066E040E00E9495
:1030900028128F2D82958F700E941B1881E067E0A7
:1030A00041E00E94281200EA1FE0C8010197F1F7F1
:1030B00081E067E040E00E9428128F2D0E941B18DB
:1030C00081E067E041E00E942812C8010197F1F712
:1030D00081E067E040E00E9428121F910F91FF906D
:1030E00008956F927F928F929F92AF92BF92CF92EC
:1030F000DF92EF92FF920F931F933B014C016115FA
:1031000071058105910521F480E30E943B1848C0B8
:1031100081E0A82EB12CC12CD12CC601B5012AE02A
:1031200030E040E050E00E94841E7B018C01C4012D
:10313000B3010E94C31E5B016C01AE0CBF1CC01E1C
:10314000D11EC401B3012AE030E040E050E00E940B
:10315000C31EC901DA013C014D01611471048104EF
:103160009104D9F6C601B5012AE030E040E050E014
:103170000E94C31E862F805D0E943B18C601B501C8
:103180002AE030E040E050E00E94C31EC901DA01AD
:103190005C016D0181E0A816B104C104D10411F7EE
:1031A0001F910F91FF90EF90DF90CF90BF90AF9065
:1031B0009F908F907F906F9008951F93CF93DF9390
:1031C000EC01009759F010E003C00E943B181F5F0C
:1031D000FE01E10FF11D80818823B9F7DF91CF91C6
:1031E0001F910895FF920F931F93F82E81E065E0E1
:1031F00040E00E94281281E066E040E00E94281230
:103200008F2D82958F700E941B1881E067E041E04E
:103210000E94281200EA1FE0C8010197F1F781E03F
:1032200067E040E00E9428128F2D0E941B1881E069
:1032300067E041E00E942812C8010197F1F781E0A0
:1032400067E040E00E9428121F910F91FF900895BF
:10325000813019F0823051F405C0862F80580E94C9
:10326000F2180895862F80540E94F2180895813034
:1032700019F0823081F408C08CE10E94F21880E4D9
:103280009CE90197F1F7089588E10E94F21880E423
:103290009CE90197F1F7089581E00E94F21880E41B
:1032A0009FE10197F1F708951F9380E064E041E00A
:1032B0000E94A21180E065E041E00E94A21180E03E
:1032C00066E041E00E94A21180E067E041E00E94D8
:1032D000A21181E065E041E00E94A21181E066E078
:1032E00041E00E94A21181E067E041E00E94A2114A
:1032F0008EE591E020E931E0F9013197F1F701978E
:10330000D9F781E065E040E00E94281281E066E0A4
:1033100040E00E94281282E00E941B1881E067E0D2
:1033200041E00E94281280EA9FE00197F1F781E0D6
:1033300067E040E00E94281288E20E94F21810EF35
:10334000812F8A95F1F78CE00E94F2181A95F1F717
:1033500081E00E94F21880E49FE10197F1F786E096
:103360000E94F21880E49CE90197F1F71F910895FB
:103370004F925F926F927F928F929F92BF92CF9265
:10338000DF92EF92FF920F931F93DF93CF93CDB70E
:10339000DEB763970FB6F894DEBF0FBECDBF4C010A
:1033A000009709F497C08FEFF4018083DE01129635
:1033B000ECE0F6E083E001900D928150E1F7DE0150
:1033C0001596E9E0F6E083E001900D928150E1F777
:1033D000DE011896EDEFF5E08CE001900D92815042
:1033E000E1F7CC24DD24F2E04F2E512C4C0E5D1E73
:1033F000E5E06E2E712C6C0E7D1E8E010F5F1F4F4F
:10340000F201EC0DFD1DE080F301EC0DFD1DF080DF
:103410008E2D6F2D40E00E942812BB2481E060E0D9
:10342000A8010E94AE128981882319F4EE24FF249A
:1034300030C0BB24B39481E061E0A8010E94AE12C9
:103440008981882321F471E0E72EF12C22C062E00B
:10345000B62E81E062E0A8010E94AE128981882325
:1034600021F452E0E52EF12C14C081E064E0A801C3
:103470000E94AE128981882301F543E0E42EF12CED
:1034800034E0B32E06C081E06B2DA8010E94AE127D
:1034900003C08E010F5F1F4F89818823A1F3C701ED
:1034A000880F991F8E0D9F1D080F191F0C0D1D1DD4
:1034B000F8018781F40180830DC08E2D6F2D41E0CE
:1034C0000E9428120894C11CD11CF3E0CF16D1042D
:1034D00009F096CF63960FB6F894DEBF0FBECDBF4E
:1034E000CF91DF911F910F91FF90EF90DF90CF90E0
:1034F000BF909F908F907F906F905F904F900895B6
:1035000080E061E041E00E94A21180E062E041E0E1
:103510000E94A21180E063E041E00E94A21180E0DD
:1035200061E041E00E94281280E062E041E00E94F8
:10353000281280E063E041E00E94281281E060E010
:1035400040E00E94A21181E061E040E00E94A211EF
:1035500081E062E040E00E94A21181E064E040E08E
:103560000E94A21181E060E00E94101381E061E0FE
:103570000E94101381E062E00E94101381E064E079
:103580000E94101308950F931F93CF93DF93082F7A
:10359000EB0161157105C1F0192F10650E94270E0E
:1035A000812F0E944A0E802F0E94700E0E94350EBD
:1035B000812F0E945D0ECE010E94920E0E94430E4A
:1035C00080E29EE40197F1F7DF91CF911F910F9177
:1035D0000895FF920F931F93182F092FF62E0E9424
:1035E000270E802F80650E944A0E812F0E94700E48
:1035F0008F2D0E94700E0E94430E80E29EE4019780
:10360000F1F71F910F91FF9008950E941F0E0895EA
:10361000823020F5882319F0813001F510C083E055
:1036200062E041E00E94A21183E063E041E00E9479
:10363000A21183E064E041E00E94A211089582E0BB
:1036400065E041E00E94A21182E066E041E00E9454
:10365000A21183E065E041E00E94A2110895FF926B
:103660000F931F93082F162FF42E862F8150823030
:1036700008F053C0023008F050C084E6841708F404
:103680004CC00E941E118F2D0E942B11002321F08F
:10369000013009F042C01FC0113019F01230E9F5B5
:1036A0000DC083E064E040E00E94A21183E062E08C
:1036B00041E00E94281283E063E01EC083E064E0E2
:1036C00040E00E94A21183E062E040E00E942812E4
:1036D00083E063E01FC0113019F01230F1F40EC026
:1036E00083E065E040E00E94A21182E065E041E0F5
:1036F0000E94281282E066E040E00DC083E065E0B1
:1037000040E00E94A21182E065E040E00E942812A1
:1037100082E066E041E00E9428121F910F91FF9025
:103720000895823020F5882319F0813001F510C00A
:1037300083E062E040E00E94281283E063E040E022
:103740000E94281283E064E040E00E94281208955D
:1037500082E065E040E00E94281282E066E040E0FE
:103760000E94281283E065E040E00E94281208953C
:10377000982F862F8150823008F048C0923008F090
:1037800045C0992321F0913009F040C01BC0613041
:1037900019F06230D9F509C083E062E041E00E948F
:1037A000281283E063E040E008C083E062E040E08C
:1037B0000E94281283E063E041E00E94281283E027
:1037C00064E011C0613019F0623001F510C082E090
:1037D00065E041E00E94281282E066E040E00E943D
:1037E000281283E065E041E00E942812089582E0FB
:1037F00065E040E00E94281282E066E041E00E941D
:10380000281283E065E041E00E94281208950E949A
:10381000D712089540E00E942812089541E00E94C6
:103820002812089541E00E94A211089580E00E94AC
:10383000891708958AE50E94891708950F931F93A9
:10384000DF93CF930F92CDB7DEB70E94A31782EA22
:1038500093E00E94060E80EB93E00E94060E8E011C
:103860000F5F1F4FC8010E94170E89818823D1F373
:10387000813361F48AE50E9489170E944C198EEB0E
:1038800093E00E94DD188EEB93E014C0823361F464
:1038900080E00E9489170E944C198AEC93E00E94F4
:1038A000DD188AEC93E006C086ED93E00E94060ED8
:1038B00083EE93E00E94060E80E395E720E931E075
:1038C000F9013197F1F70197D9F70E944C190F9040
:1038D000CF91DF911F910F9108950F931F93DF9365
:1038E000CF930F92CDB7DEB70E944C1986EF93E0CD
:1038F0000E94060E8E010F5F1F4FC8010E94170E17
:1039000089818823D1F3803369F40E94AB170E9428
:103910004C1984E194E00E94DD1884E294E00E9456
:10392000060E22C00E94B11788EE93E020E931E034
:10393000F9013197F1F70197D9F799818BE0989FB9
:10394000802D11240E942B110E944C1987E394E0D2
:103950000E94DD1889810E943B1886E494E00E9451
:10396000060E89810E94D10D0F90CF91DF911F919A
:103970000F9108950F931F93DF93CF930F92CDB7BD
:10398000DEB70E944C1988E594E00E94DD1882E0C1
:1039900060E00E94281986E694E00E94DD188E01FE
:1039A0000F5F1F4FC8010E94B81989818F3FD1F363
:1039B0000E944C198981803381F40E94AB1784E105
:1039C00094E00E94DD1880E29EE420E931E0F901F4
:1039D0003197F1F70197D9F722C00E94B11788EE0D
:1039E00093E020E931E0F9013197F1F70197D9F738
:1039F00099818BE0989F802D11240E942B1187E3E1
:103A000094E00E94DD1889810E943B1880E29EE4C8
:103A100020E931E0F9013197F1F70197D9F70F90DB
:103A2000CF91DF911F910F9108950E941E110E9466
:103A3000B71781E063E041E00E94A2110895CF939F
:103A4000DF930E944C1986E794E00E94DD18C0E9DC
:103A5000D1E083E066E00E94071C83E067E00E94FB
:103A6000FA1788E99AE3FE013197F1F70197D9F740
:103A7000F0CF83E067E00E94171883E066E00E94C1
:103A8000121C0895DF93CF930F92CDB7DEB780E07D
:103A9000BE016F5F7F4F0E94BD170E944C1982E8E4
:103AA00094E00E94DD18698170E080E090E00E945F
:103AB000711883E40E943B1882E060E00E9428199C
:103AC00080912B06882361F482E894E00E94060E20
:103AD00089810E94D50D83E40E94D10D0E94FD0DC5
:103AE00080912A06813059F48BE894E00E94DD1819
:103AF00080912B06882379F48BE894E00AC084E94E
:103B000094E00E94DD1880912B06882321F484E93B
:103B100094E00E94060E80E395E720E931E0F90188
:103B20003197F1F70197D9F70E944C190F90CF9177
:103B3000DF9108950E94D50E81E080932A060E94AD
:103B4000421D08950E94DE0E10922A0680E00E9417
:103B5000911B0E94421D08950F931F93DF93CF93F3
:103B60000F92CDB7DEB781E080932B060E944C19EF
:103B70008EE994E00E94DD1882E060E00E9428193E
:103B80008FEA94E00E94DD188E010F5F1F4FC8017D
:103B90000E94B81989818F3FD1F3823339F0833382
:103BA00041F0813349F40E949A1D21C00E94A21D58
:103BB0001EC00E94421D1BC00E944C198BEB94E05A
:103BC0000E94DD1882E060E00E94281988EC94E0F1
:103BD0000E94DD1888E99AE320E931E0F901319784
:103BE000F1F70197D9F70E944C190E94AC1D0F9074
:103BF000CF91DF911F910F9108950F931F93DF9342
:103C0000CF930F92CDB7DEB710922B068BED94E0D9
:103C10000E94060E81EE94E00E94060E86EE94E06D
:103C20000E94060E8CEE94E00E94060E8E010F5F3D
:103C30001F4FC8010E94170E89818823D1F3823358
:103C400039F0833341F0813359F40E949A1D23C027
:103C50000E94A21D20C080E090E00E94421D1BC077
:103C60000E944C198BEB94E00E94DD1882E060E02A
:103C70000E94281988EC94E00E94DD1888E99AE3F4
:103C800020E931E0F9013197F1F70197D9F70E9466
:103C90004C190E94AC1D0F90CF91DF911F910F9195
:103CA00008950E94F61780E00E94081B0E949A1156
:103CB00080E064E00E94A60E85E69EE10E94ED0F82
:103CC00088EE93E00E94E80E0895DF93CF930F9261
:103CD000CDB7DEB780E0BE016F5F7F4F0E94BD179A
:103CE0008981863120F480E00E94911B04C080E02D
:103CF00061E00E94B81B0F90CF91DF9108950E9460
:103D0000B70D0E944108FFCF629FD001739FF00161
:103D1000829FE00DF11D649FE00DF11D929FF00D5B
:103D2000839FF00D749FF00D659FF00D9927729F92
:103D3000B00DE11DF91F639FB00DE11DF91FBD011D
:103D4000CF0111240895991B79E004C0991F96179B
:103D500008F0961B881F7A95C9F780950895AA1BCD
:103D6000BB1B51E107C0AA1FBB1FA617B70710F066
:103D7000A61BB70B881F991F5A95A9F78095909598
:103D8000BC01CD010895A1E21A2EAA1BBB1BFD01A7
:103D90000DC0AA1FBB1FEE1FFF1FA217B307E4072A
:103DA000F50720F0A21BB30BE40BF50B661F771F82
:103DB000881F991F1A9469F7609570958095909562
:103DC0009B01AC01BD01CF0108952F923F924F920C
:103DD0005F926F927F928F929F92AF92BF92CF929B
:103DE000DF92EF92FF920F931F93CF93DF93CDB7A4
:103DF000DEB7CA1BDB0B0FB6F894DEBF0FBECDBF1C
:103E000009942A88398848885F846E847D848C84EC
:103E10009B84AA84B984C884DF80EE80FD800C81F5
:103E20001B81AA81B981CE0FD11D0FB6F894DEBFD8
:0C3E30000FBECDBFED010895F894FFCF48
:103E3C0020202043686F6F73652066726F6D2000C1
:103E4C0020202020204D656E7500312D4C454453AB
:103E5C0020322D44696D6D657200332D4143203441
:103E6C002D4C6F676F7574002020204C6F67204FAE
:103E7C007574200057726F6E672043686F696365B5
:103E8C0000506C65617365205472792061676169BB
:103E9C006E21210070617373776F7264203F004C48
:103EAC006F67696E20537563636573730077726F08
:103EBC006E672070617373776F726400747279200F
:103ECC00616761696E200057656C636F6D65204199
:103EDC00646D696E0054797065206E657720706131
:103EEC007373776F72640041646D696E20506173F7
:103EFC0073776F72642043726561746564005765F3
:103F0C006C636F6D6520486F6D65007072657373BF
:103F1C0020616E79206B65790043686F6F73652043
:103F2C007573657200546F204C6F67696E00312D8C
:103F3C0041646D696E0020322D00332D0020342D2C
:103F4C0000496E76616C696420456E747279005418
:103F5C00727920416761696E200020202043686FD0
:103F6C006F73652066726F6D204D656E75203A20FB
:103F7C0000312D4C45445300322D44696D6D6572F2
:103F8C0000332D414300342D446F6F7200352D43A7
:103F9C007265617465205573657200362D44656CCD
:103FAC00657465205573657200372D4368616E67C3
:103FBC00652070617373776F726400382D4C6F6776
:103FCC006F7574005479706520757365726E616DD0
:103FDC006500547970652070617373776F7264003B
:103FEC005573657220437265617465640043686F34
:103FFC006F7365207573657220546F2064656C65F2
:10400C007465004E6F2075736572206578697374E2
:10401C002000757365722064656C6574656400437B
:10402C00686F6F7365207573657220746F20636899
:10403C00616E67652070617373776F726400312DE8
:10404C0061646D696E2000747970652070617373A2
:10405C00776F72640070617373776F72642063683A
:10406C00616E676564006E6F20656D707479207386
:10407C006C6F740043686F6F73652046726F6D00D0
:10408C004C45443120544F204C45443500202020D1
:10409C002020204C45443100312D4F4E2020202033
:1040AC00202020322D4F4646004C454420312069BB
:1040BC0073204F4E004C45442031206973204F46ED
:1040CC00460057726F6E672043686F6963650050D6
:1040DC006C656173652054727920616761696E212A
:1040EC0021002020202020204C454432004C454407
:1040FC002032206973204F4E004C454420322069F9
:10410C0073204F4646002020202020204C4544336D
:10411C00004C45442033206973204F4E004C4544DD
:10412C002033206973204F46460020202020202079
:10413C004C454434004C45442034206973204F4E88
:10414C00004C45442034206973204F464600202003
:10415C00202020204C454435004C45442035206916
:10416C0073204F4E004C45442035206973204F4638
:10417C004600312D204F70656E20446F6F72200009
:10418C00322D20436C6F736520446F6F7200446F47
:10419C006F72204F70656E656400446F6F722043C0
:1041AC006C6F7365640057726F6E672043686F693C
:1041BC00636500506C65617365205472792061678A
:1041CC0061696E212100456E74657220546865200A
:1041DC004C454420496E74656E736974792028309F
:1041EC002D3929004C454420496E74656E736974F1
:1041FC00792030004C454420496E74656E736974A7
:10420C00792069732030004C454420496E74656EEA
:10421C007369747920004C454420496E74656E7343
:10422C006974792069732000456E74657220546836
:10423C0065204C454400496E74656E736974792031
:10424C0028302D392900414C455254204953204FD8
:10425C004E0054656D702049733A004143206973D8
:10426C00204F4E004143206973204F464600312DAC
:10427C004143204F4E20322D4143204F46460033C0
:10428C002D4143205374617475730057726F6E67C0
:10429C002043686F69636500506C656173652054D9
:1042AC00727920616761696E2121002009094143FF
:1042BC0000312D4F4E00322D4F464600332D537496
:1042CC006174757300000000000000000000010222
:1042DC000203030303040404040404040405050595
:1042EC00050505050505050505050505050606066F
:1042FC000606060606060606060606060606060652
:10430C00060606060606060606060606060707073E
:10431C000707070707070707070707070707070721
:10432C000707070707070707070707070707070711
:10433C000707070707070707070707070707070701
:10434C0007070707070707070707070707080808EE
:10435C0008080808080808080808080808080808D1
:10436C0008080808080808080808080808080808C1
:10437C0008080808080808080808080808080808B1
:10438C0008080808080808080808080808080808A1
:10439C000808080808080808080808080808080891
:1043AC000808080808080808080808080808080881
:1043BC000808080808080808080808080808080871
:1043CC0008080808080808080808080808313233E3
:1043DC003435363738392A30230102030000000007
:00000001FF
